{
  "contractName": "TokenizedDerivativeCreator",
  "abi": [
    {
      "constant": false,
      "inputs": [
        {
          "name": "_time",
          "type": "uint256"
        }
      ],
      "name": "setCurrentTime",
      "outputs": [],
      "payable": false,
      "stateMutability": "nonpayable",
      "type": "function"
    },
    {
      "constant": true,
      "inputs": [],
      "name": "getCurrentTime",
      "outputs": [
        {
          "name": "",
          "type": "uint256"
        }
      ],
      "payable": false,
      "stateMutability": "view",
      "type": "function"
    },
    {
      "constant": true,
      "inputs": [],
      "name": "marginCurrencyWhitelist",
      "outputs": [
        {
          "name": "",
          "type": "address"
        }
      ],
      "payable": false,
      "stateMutability": "view",
      "type": "function"
    },
    {
      "constant": true,
      "inputs": [],
      "name": "isTest",
      "outputs": [
        {
          "name": "",
          "type": "bool"
        }
      ],
      "payable": false,
      "stateMutability": "view",
      "type": "function"
    },
    {
      "constant": true,
      "inputs": [],
      "name": "returnCalculatorWhitelist",
      "outputs": [
        {
          "name": "",
          "type": "address"
        }
      ],
      "payable": false,
      "stateMutability": "view",
      "type": "function"
    },
    {
      "inputs": [
        {
          "name": "_finderAddress",
          "type": "address"
        },
        {
          "name": "_returnCalculatorWhitelist",
          "type": "address"
        },
        {
          "name": "_marginCurrencyWhitelist",
          "type": "address"
        },
        {
          "name": "_isTest",
          "type": "bool"
        }
      ],
      "payable": false,
      "stateMutability": "nonpayable",
      "type": "constructor"
    },
    {
      "anonymous": false,
      "inputs": [
        {
          "indexed": false,
          "name": "contractAddress",
          "type": "address"
        }
      ],
      "name": "CreatedTokenizedDerivative",
      "type": "event"
    },
    {
      "constant": false,
      "inputs": [
        {
          "components": [
            {
              "name": "priceFeedAddress",
              "type": "address"
            },
            {
              "name": "defaultPenalty",
              "type": "uint256"
            },
            {
              "name": "supportedMove",
              "type": "uint256"
            },
            {
              "name": "product",
              "type": "bytes32"
            },
            {
              "name": "fixedYearlyFee",
              "type": "uint256"
            },
            {
              "name": "disputeDeposit",
              "type": "uint256"
            },
            {
              "name": "returnCalculator",
              "type": "address"
            },
            {
              "name": "startingTokenPrice",
              "type": "uint256"
            },
            {
              "name": "expiry",
              "type": "uint256"
            },
            {
              "name": "marginCurrency",
              "type": "address"
            },
            {
              "name": "withdrawLimit",
              "type": "uint256"
            },
            {
              "name": "returnType",
              "type": "uint8"
            },
            {
              "name": "startingUnderlyingPrice",
              "type": "uint256"
            },
            {
              "name": "name",
              "type": "string"
            },
            {
              "name": "symbol",
              "type": "string"
            },
            {
              "name": "strikePrice",
              "type": "uint256"
            }
          ],
          "name": "params",
          "type": "tuple"
        }
      ],
      "name": "createTokenizedDerivative",
      "outputs": [
        {
          "name": "derivativeAddress",
          "type": "address"
        }
      ],
      "payable": false,
      "stateMutability": "nonpayable",
      "type": "function"
    }
  ],
  "bytecode": "0x60806040523480156200001157600080fd5b5060405160808062004ec783398101806040526200003391908101906200015a565b8084806000806101000a81548173ffffffffffffffffffffffffffffffffffffffff021916908373ffffffffffffffffffffffffffffffffffffffff1602179055505080600060146101000a81548160ff02191690831515021790555080156200009f57426001819055505b5082600260006101000a81548173ffffffffffffffffffffffffffffffffffffffff021916908373ffffffffffffffffffffffffffffffffffffffff16021790555081600360006101000a81548173ffffffffffffffffffffffffffffffffffffffff021916908373ffffffffffffffffffffffffffffffffffffffff160217905550505050506200023a565b6000815190506200013d8162000206565b92915050565b600081519050620001548162000220565b92915050565b600080600080608085870312156200017157600080fd5b600062000181878288016200012c565b945050602062000194878288016200012c565b9350506040620001a7878288016200012c565b9250506060620001ba8782880162000143565b91505092959194509250565b6000620001d382620001e6565b9050919050565b60008115159050919050565b600073ffffffffffffffffffffffffffffffffffffffff82169050919050565b6200021181620001c6565b81146200021d57600080fd5b50565b6200022b81620001da565b81146200023757600080fd5b50565b614c7d806200024a6000396000f3fe60806040523480156200001157600080fd5b50600436106200006a5760003560e01c806322f8e566146200006f57806329cb924d146200008f578063415b725114620000b15780639381a34514620000d3578063966a67dd14620000f5578063e0be42cf1462000117575b600080fd5b6200008d600480360362000087919081019062000c79565b6200014d565b005b6200009962000171565b604051620000a891906200107a565b60405180910390f35b620000bb6200019a565b604051620000ca91906200100f565b60405180910390f35b620000dd620001c0565b604051620000ec919062000fd5565b60405180910390f35b620000ff620001d3565b6040516200010e91906200100f565b60405180910390f35b6200013560048036036200012f919081019062000c34565b620001f9565b60405162000144919062000f84565b60405180910390f35b600060149054906101000a900460ff166200016757600080fd5b8060018190555050565b60008060149054906101000a900460ff16156200019357600154905062000197565b4290505b90565b600360009054906101000a900473ffffffffffffffffffffffffffffffffffffffff1681565b600060149054906101000a900460ff1681565b600260009054906101000a900473ffffffffffffffffffffffffffffffffffffffff1681565b60008062000207836200031d565b836101a00151846101c0015160405162000221906200081c565b6200022f939291906200102c565b604051809103906000f0801580156200024c573d6000803e3d6000fd5b50905060606001604051908082528060200260200182016040528015620002825781602001602082028038833980820191505090505b50905033816000815181106200029457fe5b602002602001019073ffffffffffffffffffffffffffffffffffffffff16908173ffffffffffffffffffffffffffffffffffffffff1681525050620002da8183620006c6565b7ff662f8b1426e949f451eda394771fcd3d09da20372cd77bfc715e2dc6affbf92826040516200030b919062000f84565b60405180910390a18192505050919050565b620003276200082a565b33816000019073ffffffffffffffffffffffffffffffffffffffff16908173ffffffffffffffffffffffffffffffffffffffff1681525050600260009054906101000a900473ffffffffffffffffffffffffffffffffffffffff1673ffffffffffffffffffffffffffffffffffffffff16633a3ab6728360c001516040518263ffffffff1660e01b8152600401620003c0919062000f84565b60206040518083038186803b158015620003d957600080fd5b505afa158015620003ee573d6000803e3d6000fd5b505050506040513d601f19601f8201168201806040525062000414919081019062000c08565b6200041e57600080fd5b8160c0015181610100019073ffffffffffffffffffffffffffffffffffffffff16908173ffffffffffffffffffffffffffffffffffffffff1681525050600360009054906101000a900473ffffffffffffffffffffffffffffffffffffffff1673ffffffffffffffffffffffffffffffffffffffff16633a3ab6728361012001516040518263ffffffff1660e01b8152600401620004bd919062000f84565b60206040518083038186803b158015620004d657600080fd5b505afa158015620004eb573d6000803e3d6000fd5b505050506040513d601f19601f8201168201806040525062000511919081019062000c08565b6200051b57600080fd5b81610120015181610160019073ffffffffffffffffffffffffffffffffffffffff16908173ffffffffffffffffffffffffffffffffffffffff16815250508160000151816040019073ffffffffffffffffffffffffffffffffffffffff16908173ffffffffffffffffffffffffffffffffffffffff16815250508160200151816060018181525050816040015181608001818152505081606001518160a001818152505081608001518160c00181815250508160a001518160e00181815250508160e00151816101200181815250508161010001518161014001818152505081610140015181610180018181525050816101600151816101a0019060018111156200062257fe5b908160018111156200063057fe5b81525050816101800151816101c0018181525050816101e00151816102000181815250506000809054906101000a900473ffffffffffffffffffffffffffffffffffffffff16816020019073ffffffffffffffffffffffffffffffffffffffff16908173ffffffffffffffffffffffffffffffffffffffff1681525050620006b762000171565b816101e0018181525050919050565b60008060009054906101000a900473ffffffffffffffffffffffffffffffffffffffff16905060007f5265676973747279000000000000000000000000000000000000000000000000905060008273ffffffffffffffffffffffffffffffffffffffff1663aafd5e40836040518263ffffffff1660e01b81526004016200074e919062000ff2565b60206040518083038186803b1580156200076757600080fd5b505afa1580156200077c573d6000803e3d6000fd5b505050506040513d601f19601f82011682018060405250620007a2919081019062000bdc565b90508073ffffffffffffffffffffffffffffffffffffffff16638014b1dc86866040518363ffffffff1660e01b8152600401620007e192919062000fa1565b600060405180830381600087803b158015620007fc57600080fd5b505af115801562000811573d6000803e3d6000fd5b505050505050505050565b61397d80620012c783390190565b604051806102200160405280600073ffffffffffffffffffffffffffffffffffffffff168152602001600073ffffffffffffffffffffffffffffffffffffffff168152602001600073ffffffffffffffffffffffffffffffffffffffff1681526020016000815260200160008152602001600080191681526020016000815260200160008152602001600073ffffffffffffffffffffffffffffffffffffffff1681526020016000815260200160008152602001600073ffffffffffffffffffffffffffffffffffffffff16815260200160008152602001600060018111156200091057fe5b81526020016000815260200160008152602001600081525090565b6000813590506200093c816200124d565b92915050565b60008151905062000953816200124d565b92915050565b6000815190506200096a8162001267565b92915050565b600081359050620009818162001281565b92915050565b60008135905062000998816200129b565b92915050565b600082601f830112620009b057600080fd5b8135620009c7620009c182620010c5565b62001097565b91508082526020830160208301858383011115620009e457600080fd5b620009f1838284620011e9565b50505092915050565b6000610200828403121562000a0e57600080fd5b62000a1b61020062001097565b9050600062000a2d848285016200092b565b600083015250602062000a438482850162000bc5565b602083015250604062000a598482850162000bc5565b604083015250606062000a6f8482850162000970565b606083015250608062000a858482850162000bc5565b60808301525060a062000a9b8482850162000bc5565b60a08301525060c062000ab1848285016200092b565b60c08301525060e062000ac78482850162000bc5565b60e08301525061010062000ade8482850162000bc5565b6101008301525061012062000af6848285016200092b565b6101208301525061014062000b0e8482850162000bc5565b6101408301525061016062000b268482850162000987565b6101608301525061018062000b3e8482850162000bc5565b610180830152506101a082013567ffffffffffffffff81111562000b6157600080fd5b62000b6f848285016200099e565b6101a0830152506101c082013567ffffffffffffffff81111562000b9257600080fd5b62000ba0848285016200099e565b6101c0830152506101e062000bb88482850162000bc5565b6101e08301525092915050565b60008135905062000bd681620012ac565b92915050565b60006020828403121562000bef57600080fd5b600062000bff8482850162000942565b91505092915050565b60006020828403121562000c1b57600080fd5b600062000c2b8482850162000959565b91505092915050565b60006020828403121562000c4757600080fd5b600082013567ffffffffffffffff81111562000c6257600080fd5b62000c7084828501620009fa565b91505092915050565b60006020828403121562000c8c57600080fd5b600062000c9c8482850162000bc5565b91505092915050565b600062000cb3838362000cbf565b60208301905092915050565b62000cca8162001144565b82525050565b62000cdb8162001144565b82525050565b600062000cee82620010ff565b62000cfa818562001122565b935062000d0783620010f2565b8060005b8381101562000d3e57815162000d22888262000ca5565b975062000d2f8362001115565b92505060018101905062000d0b565b5085935050505092915050565b62000d568162001158565b82525050565b62000d678162001164565b82525050565b62000d788162001164565b82525050565b62000d8981620011ad565b82525050565b62000d9a81620011d5565b82525050565b600062000dad826200110a565b62000db9818562001133565b935062000dcb818560208601620011f8565b62000dd6816200122e565b840191505092915050565b6102208201600082015162000dfa600085018262000cbf565b50602082015162000e0f602085018262000cbf565b50604082015162000e24604085018262000cbf565b50606082015162000e39606085018262000f62565b50608082015162000e4e608085018262000f62565b5060a082015162000e6360a085018262000d5c565b5060c082015162000e7860c085018262000f62565b5060e082015162000e8d60e085018262000f62565b5061010082015162000ea461010085018262000cbf565b5061012082015162000ebb61012085018262000f62565b5061014082015162000ed261014085018262000f62565b5061016082015162000ee961016085018262000cbf565b5061018082015162000f0061018085018262000f62565b506101a082015162000f176101a085018262000d8f565b506101c082015162000f2e6101c085018262000f62565b506101e082015162000f456101e085018262000f62565b5061020082015162000f5c61020085018262000f62565b50505050565b62000f6d81620011a3565b82525050565b62000f7e81620011a3565b82525050565b600060208201905062000f9b600083018462000cd0565b92915050565b6000604082019050818103600083015262000fbd818562000ce1565b905062000fce602083018462000cd0565b9392505050565b600060208201905062000fec600083018462000d4b565b92915050565b600060208201905062001009600083018462000d6d565b92915050565b600060208201905062001026600083018462000d7e565b92915050565b60006102608201905062001044600083018662000de1565b81810361022083015262001059818562000da0565b905081810361024083015262001070818462000da0565b9050949350505050565b600060208201905062001091600083018462000f73565b92915050565b6000604051905081810181811067ffffffffffffffff82111715620010bb57600080fd5b8060405250919050565b600067ffffffffffffffff821115620010dd57600080fd5b601f19601f8301169050602081019050919050565b6000602082019050919050565b600081519050919050565b600081519050919050565b6000602082019050919050565b600082825260208201905092915050565b600082825260208201905092915050565b6000620011518262001183565b9050919050565b60008115159050919050565b6000819050919050565b60008190506200117e826200123f565b919050565b600073ffffffffffffffffffffffffffffffffffffffff82169050919050565b6000819050919050565b6000620011ba82620011c1565b9050919050565b6000620011ce8262001183565b9050919050565b6000620011e2826200116e565b9050919050565b82818337600083830152505050565b60005b8381101562001218578082015181840152602081019050620011fb565b8381111562001228576000848401525b50505050565b6000601f19601f8301169050919050565b600281106200124a57fe5b50565b620012588162001144565b81146200126457600080fd5b50565b620012728162001158565b81146200127e57600080fd5b50565b6200128c8162001164565b81146200129857600080fd5b50565b60028110620012a957600080fd5b50565b620012b781620011a3565b8114620012c357600080fd5b5056fe60806040523480156200001157600080fd5b506040516200397d3803806200397d83398101806040526200003791908101906200047f565b81600390805190602001906200004f92919062000167565b5080600490805190602001906200006892919062000167565b50600573__TokenizedDerivativeUtils______________63c5cfad68909185846040518463ffffffff1660e01b8152600401620000a99392919062000717565b60006040518083038186803b158015620000c257600080fd5b505af4158015620000d7573d6000803e3d6000fd5b505050508261020001516005600001600a01819055506e0da14c27c155bb7c1ac9bd7519eb3b73ffffffffffffffffffffffffffffffffffffffff1663b08a36196040518163ffffffff1660e01b8152600401600060405180830381600087803b1580156200014557600080fd5b505af11580156200015a573d6000803e3d6000fd5b50505050505050620008f9565b828054600181600116156101000203166002900490600052602060002090601f016020900481019282601f10620001aa57805160ff1916838001178555620001db565b82800160010185558215620001db579182015b82811115620001da578251825591602001919060010190620001bd565b5b509050620001ea9190620001ee565b5090565b6200021391905b808211156200020f576000816000905550600101620001f5565b5090565b90565b60008151905062000227816200089a565b92915050565b6000815190506200023e81620008b4565b92915050565b6000815190506200025581620008ce565b92915050565b600082601f8301126200026d57600080fd5b8151620002846200027e826200078b565b6200075d565b91508082526020830160208301858383011115620002a157600080fd5b620002ae83828462000845565b50505092915050565b60006102208284031215620002cb57600080fd5b620002d86102206200075d565b90506000620002ea8482850162000216565b6000830152506020620003008482850162000216565b6020830152506040620003168482850162000216565b60408301525060606200032c8482850162000468565b6060830152506080620003428482850162000468565b60808301525060a062000358848285016200022d565b60a08301525060c06200036e8482850162000468565b60c08301525060e0620003848482850162000468565b60e0830152506101006200039b8482850162000216565b61010083015250610120620003b38482850162000468565b61012083015250610140620003cb8482850162000468565b61014083015250610160620003e38482850162000216565b61016083015250610180620003fb8482850162000468565b610180830152506101a0620004138482850162000244565b6101a0830152506101c06200042b8482850162000468565b6101c0830152506101e0620004438482850162000468565b6101e0830152506102006200045b8482850162000468565b6102008301525092915050565b6000815190506200047981620008df565b92915050565b600080600061026084860312156200049657600080fd5b6000620004a686828701620002b7565b93505061022084015167ffffffffffffffff811115620004c557600080fd5b620004d3868287016200025b565b92505061024084015167ffffffffffffffff811115620004f257600080fd5b62000500868287016200025b565b9150509250925092565b6200051581620007d4565b82525050565b6200052681620007e8565b82525050565b620005378162000831565b82525050565b60006200054a82620007b8565b620005568185620007c3565b93506200056881856020860162000845565b62000573816200087b565b840191505092915050565b610220820160008201516200059760008501826200050a565b506020820151620005ac60208501826200050a565b506040820151620005c160408501826200050a565b506060820151620005d6606085018262000706565b506080820151620005eb608085018262000706565b5060a08201516200060060a08501826200051b565b5060c08201516200061560c085018262000706565b5060e08201516200062a60e085018262000706565b50610100820151620006416101008501826200050a565b506101208201516200065861012085018262000706565b506101408201516200066f61014085018262000706565b50610160820151620006866101608501826200050a565b506101808201516200069d61018085018262000706565b506101a0820151620006b46101a08501826200052c565b506101c0820151620006cb6101c085018262000706565b506101e0820151620006e26101e085018262000706565b50610200820151620006f961020085018262000706565b50505050565b8082525050565b620007118162000827565b82525050565b6000610260820190506200072f6000830186620006ff565b6200073e60208301856200057e565b8181036102408301526200075381846200053d565b9050949350505050565b6000604051905081810181811067ffffffffffffffff821117156200078157600080fd5b8060405250919050565b600067ffffffffffffffff821115620007a357600080fd5b601f19601f8301169050602081019050919050565b600081519050919050565b600082825260208201905092915050565b6000620007e18262000807565b9050919050565b6000819050919050565b600081905062000802826200088c565b919050565b600073ffffffffffffffffffffffffffffffffffffffff82169050919050565b6000819050919050565b60006200083e82620007f2565b9050919050565b60005b838110156200086557808201518184015260208101905062000848565b8381111562000875576000848401525b50505050565b6000601f19601f8301169050919050565b600281106200089757fe5b50565b620008a581620007d4565b8114620008b157600080fd5b50565b620008bf81620007e8565b8114620008cb57600080fd5b50565b60028110620008dc57600080fd5b50565b620008ea8162000827565b8114620008f657600080fd5b50565b61307480620009096000396000f3fe6080604052600436106101f95760003560e01c806342966c681161010d578063b6b55f25116100a0578063c7af29a91161006f578063c7af29a9146106d0578063dd62ed3e146106fb578063e14e42da14610738578063e39dd93a14610764578063f3f75c061461078f576101f9565b8063b6b55f2514610658578063b82b9ff614610674578063bda02e7714610690578063c5964817146106a7576101f9565b806395d89b41116100dc57806395d89b411461058a578063a457c2d7146105b5578063a6e158f8146105f2578063a9059cbb1461061b576101f9565b806342966c68146104dd5780636074785a1461050657806370a082311461053157806386d6282c1461056e576101f9565b806323b872dd116101905780633403c2fc1161015f5780633403c2fc146103fa57806339509351146104115780633c6ee3921461044e5780633e1700a71461046a57806340c10f19146104a0576101f9565b806323b872dd1461033e5780632e1a7d4d1461037b578063313ce567146103a45780633327570b146103cf576101f9565b8063156c87fb116101cc578063156c87fb146102a857806318160ddd146102bf5780631c93cd75146102ea578063211339f814610313576101f9565b8063013a6e97146101fe57806306fdde0314610229578063095ea7b31461025457806311da60b414610291575b600080fd5b34801561020a57600080fd5b506102136107ba565b6040516102209190612a94565b60405180910390f35b34801561023557600080fd5b5061023e6107cd565b60405161024b9190612af3565b60405180910390f35b34801561026057600080fd5b5061027b6004803603610276919081019061230a565b61086b565b6040516102889190612a79565b60405180910390f35b34801561029d57600080fd5b506102a6610882565b005b3480156102b457600080fd5b506102bd6108ee565b005b3480156102cb57600080fd5b506102d461095a565b6040516102e19190612db6565b60405180910390f35b3480156102f657600080fd5b50610311600480360361030c9190810190612256565b610964565b005b34801561031f57600080fd5b506103286109d3565b6040516103359190612aaf565b60405180910390f35b34801561034a57600080fd5b50610365600480360361036091908101906122bb565b610a64565b6040516103729190612a79565b60405180910390f35b34801561038757600080fd5b506103a2600480360361039d91908101906123d4565b610b15565b005b3480156103b057600080fd5b506103b9610b84565b6040516103c69190612dd1565b60405180910390f35b3480156103db57600080fd5b506103e4610b89565b6040516103f19190612aaf565b60405180910390f35b34801561040657600080fd5b5061040f610c1a565b005b34801561041d57600080fd5b506104386004803603610433919081019061230a565b610c86565b6040516104459190612a79565b60405180910390f35b610468600480360361046391908101906123fd565b610d2b565b005b34801561047657600080fd5b5061047f610d9d565b6040516104979c9b9a99989796959493929190612c15565b60405180910390f35b3480156104ac57600080fd5b506104c760048036036104c2919081019061230a565b6111c6565b6040516104d49190612a79565b60405180910390f35b3480156104e957600080fd5b5061050460048036036104ff91908101906123d4565b611214565b005b34801561051257600080fd5b5061051b611259565b6040516105289190612aaf565b60405180910390f35b34801561053d57600080fd5b5061055860048036036105539190810190612256565b6112ea565b6040516105659190612db6565b60405180910390f35b610588600480360361058391908101906123d4565b611332565b005b34801561059657600080fd5b5061059f6113a1565b6040516105ac9190612af3565b60405180910390f35b3480156105c157600080fd5b506105dc60048036036105d7919081019061230a565b61143f565b6040516105e99190612a79565b60405180910390f35b3480156105fe57600080fd5b50610619600480360361061491908101906123d4565b6114e4565b005b34801561062757600080fd5b50610642600480360361063d919081019061230a565b611553565b60405161064f9190612a79565b60405180910390f35b610672600480360361066d91908101906123d4565b61156a565b005b61068e600480360361068991908101906123fd565b6115d9565b005b34801561069c57600080fd5b506106a561164b565b005b3480156106b357600080fd5b506106ce60048036036106c9919081019061230a565b6116b7565b005b3480156106dc57600080fd5b506106e5611729565b6040516106f29190612aaf565b60405180910390f35b34801561070757600080fd5b50610722600480360361071d919081019061227f565b6117ba565b60405161072f9190612db6565b60405180910390f35b34801561074457600080fd5b5061074d611841565b60405161075b929190612aca565b60405180910390f35b34801561077057600080fd5b506107796118d5565b6040516107869190612aaf565b60405180910390f35b34801561079b57600080fd5b506107a4611966565b6040516107b19190612a79565b60405180910390f35b6e0da14c27c155bb7c1ac9bd7519eb3b81565b60038054600181600116156101000203166002900480601f0160208091040260200160405190810160405280929190818152602001828054600181600116156101000203166002900480156108635780601f1061083857610100808354040283529160200191610863565b820191906000526020600020905b81548152906001019060200180831161084657829003601f168201915b505050505081565b60006108783384846119f7565b6001905092915050565b600573__TokenizedDerivativeUtils______________639f3f1bde90916040518263ffffffff1660e01b81526004016108bc9190612cdb565b60006040518083038186803b1580156108d457600080fd5b505af41580156108e8573d6000803e3d6000fd5b50505050565b600573__TokenizedDerivativeUtils______________63d658d7ea90916040518263ffffffff1660e01b81526004016109289190612cdb565b60006040518083038186803b15801561094057600080fd5b505af4158015610954573d6000803e3d6000fd5b50505050565b6000600254905090565b600573__TokenizedDerivativeUtils______________63e11e62579091836040518363ffffffff1660e01b81526004016109a0929190612cf6565b60006040518083038186803b1580156109b857600080fd5b505af41580156109cc573d6000803e3d6000fd5b5050505050565b6000600573__TokenizedDerivativeUtils______________634b26eb4690916040518263ffffffff1660e01b8152600401610a0f9190612cdb565b60206040518083038186803b158015610a2757600080fd5b505af4158015610a3b573d6000803e3d6000fd5b505050506040513d601f19601f82011682018060405250610a5f919081019061236f565b905090565b6000610a71848484611bc2565b610b0a8433610b0585600160008a73ffffffffffffffffffffffffffffffffffffffff1673ffffffffffffffffffffffffffffffffffffffff16815260200190815260200160002060003373ffffffffffffffffffffffffffffffffffffffff1673ffffffffffffffffffffffffffffffffffffffff16815260200190815260200160002054611e3290919063ffffffff16565b6119f7565b600190509392505050565b600573__TokenizedDerivativeUtils______________63360215799091836040518363ffffffff1660e01b8152600401610b51929190612d56565b60006040518083038186803b158015610b6957600080fd5b505af4158015610b7d573d6000803e3d6000fd5b5050505050565b601281565b6000600573__TokenizedDerivativeUtils______________636663de9690916040518263ffffffff1660e01b8152600401610bc59190612cdb565b60206040518083038186803b158015610bdd57600080fd5b505af4158015610bf1573d6000803e3d6000fd5b505050506040513d601f19601f82011682018060405250610c15919081019061236f565b905090565b600573__TokenizedDerivativeUtils______________6324477be890916040518263ffffffff1660e01b8152600401610c549190612cdb565b60006040518083038186803b158015610c6c57600080fd5b505af4158015610c80573d6000803e3d6000fd5b50505050565b6000610d213384610d1c85600160003373ffffffffffffffffffffffffffffffffffffffff1673ffffffffffffffffffffffffffffffffffffffff16815260200190815260200160002060008973ffffffffffffffffffffffffffffffffffffffff1673ffffffffffffffffffffffffffffffffffffffff16815260200190815260200160002054611e8890919063ffffffff16565b6119f7565b6001905092915050565b600573__TokenizedDerivativeUtils______________630a4a5b76909184846040518463ffffffff1660e01b8152600401610d6993929190612d7f565b60006040518083038186803b158015610d8157600080fd5b505af4158015610d95573d6000803e3d6000fd5b505050505050565b600580600001604051806101600160405290816000820154815260200160018201548152602001600282015481526020016003820154815260200160048201548152602001600582015481526020016006820160009054906101000a900460ff166001811115610e0957fe5b6001811115610e1457fe5b81526020016007820154815260200160088201548152602001600982018054600181600116156101000203166002900480601f016020809104026020016040519081016040528092919081815260200182805460018160011615610100020316600290048015610ec55780601f10610e9a57610100808354040283529160200191610ec5565b820191906000526020600020905b815481529060010190602001808311610ea857829003601f168201915b50505050508152602001600a820154815250509080600b016040518060c00160405290816000820160009054906101000a900473ffffffffffffffffffffffffffffffffffffffff1673ffffffffffffffffffffffffffffffffffffffff1673ffffffffffffffffffffffffffffffffffffffff1681526020016001820160009054906101000a900473ffffffffffffffffffffffffffffffffffffffff1673ffffffffffffffffffffffffffffffffffffffff1673ffffffffffffffffffffffffffffffffffffffff1681526020016002820160009054906101000a900473ffffffffffffffffffffffffffffffffffffffff1673ffffffffffffffffffffffffffffffffffffffff1673ffffffffffffffffffffffffffffffffffffffff1681526020016003820160009054906101000a900473ffffffffffffffffffffffffffffffffffffffff1673ffffffffffffffffffffffffffffffffffffffff1673ffffffffffffffffffffffffffffffffffffffff1681526020016004820160009054906101000a900473ffffffffffffffffffffffffffffffffffffffff1673ffffffffffffffffffffffffffffffffffffffff1673ffffffffffffffffffffffffffffffffffffffff1681526020016005820160009054906101000a900473ffffffffffffffffffffffffffffffffffffffff1673ffffffffffffffffffffffffffffffffffffffff1673ffffffffffffffffffffffffffffffffffffffff1681525050908060110154908060120154908060130160009054906101000a900460ff1690806014015490806015016040518060600160405290816000820154815260200160018201548152602001600282015481525050908060180160405180606001604052908160008201548152602001600182015481526020016002820154815250509080601b01549080601c01604051806040016040529081600082015481526020016001820154815250509080601e01549080601f016040518060400160405290816000820154815260200160018201548152505090508c565b60003073ffffffffffffffffffffffffffffffffffffffff163373ffffffffffffffffffffffffffffffffffffffff161461120057600080fd5b61120a8383611edd565b6001905092915050565b3073ffffffffffffffffffffffffffffffffffffffff163373ffffffffffffffffffffffffffffffffffffffff161461124c57600080fd5b6112563382612065565b50565b6000600573__TokenizedDerivativeUtils______________639545a37e90916040518263ffffffff1660e01b81526004016112959190612cdb565b60206040518083038186803b1580156112ad57600080fd5b505af41580156112c1573d6000803e3d6000fd5b505050506040513d601f19601f820116820180604052506112e5919081019061236f565b905090565b60008060008373ffffffffffffffffffffffffffffffffffffffff1673ffffffffffffffffffffffffffffffffffffffff168152602001908152602001600020549050919050565b600573__TokenizedDerivativeUtils______________630806c1939091836040518363ffffffff1660e01b815260040161136e929190612d56565b60006040518083038186803b15801561138657600080fd5b505af415801561139a573d6000803e3d6000fd5b5050505050565b60048054600181600116156101000203166002900480601f0160208091040260200160405190810160405280929190818152602001828054600181600116156101000203166002900480156114375780601f1061140c57610100808354040283529160200191611437565b820191906000526020600020905b81548152906001019060200180831161141a57829003601f168201915b505050505081565b60006114da33846114d585600160003373ffffffffffffffffffffffffffffffffffffffff1673ffffffffffffffffffffffffffffffffffffffff16815260200190815260200160002060008973ffffffffffffffffffffffffffffffffffffffff1673ffffffffffffffffffffffffffffffffffffffff16815260200190815260200160002054611e3290919063ffffffff16565b6119f7565b6001905092915050565b600573__TokenizedDerivativeUtils______________630a5c47099091836040518363ffffffff1660e01b8152600401611520929190612d56565b60006040518083038186803b15801561153857600080fd5b505af415801561154c573d6000803e3d6000fd5b5050505050565b6000611560338484611bc2565b6001905092915050565b600573__TokenizedDerivativeUtils______________63db2fa4249091836040518363ffffffff1660e01b81526004016115a6929190612d56565b60006040518083038186803b1580156115be57600080fd5b505af41580156115d2573d6000803e3d6000fd5b5050505050565b600573__TokenizedDerivativeUtils______________63c31671ff909184846040518463ffffffff1660e01b815260040161161793929190612d7f565b60006040518083038186803b15801561162f57600080fd5b505af4158015611643573d6000803e3d6000fd5b505050505050565b600573__TokenizedDerivativeUtils______________633cd450dd90916040518263ffffffff1660e01b81526004016116859190612cdb565b60006040518083038186803b15801561169d57600080fd5b505af41580156116b1573d6000803e3d6000fd5b50505050565b600573__TokenizedDerivativeUtils______________63c866ede8909184846040518463ffffffff1660e01b81526004016116f593929190612d1f565b60006040518083038186803b15801561170d57600080fd5b505af4158015611721573d6000803e3d6000fd5b505050505050565b6000600573__TokenizedDerivativeUtils______________6355108c0290916040518263ffffffff1660e01b81526004016117659190612cdb565b60206040518083038186803b15801561177d57600080fd5b505af4158015611791573d6000803e3d6000fd5b505050506040513d601f19601f820116820180604052506117b5919081019061236f565b905090565b6000600160008473ffffffffffffffffffffffffffffffffffffffff1673ffffffffffffffffffffffffffffffffffffffff16815260200190815260200160002060008373ffffffffffffffffffffffffffffffffffffffff1673ffffffffffffffffffffffffffffffffffffffff16815260200190815260200160002054905092915050565b600080600573__TokenizedDerivativeUtils______________638ce27c3f90916040518263ffffffff1660e01b815260040161187e9190612cdb565b604080518083038186803b15801561189557600080fd5b505af41580156118a9573d6000803e3d6000fd5b505050506040513d601f19601f820116820180604052506118cd9190810190612398565b915091509091565b6000600573__TokenizedDerivativeUtils______________637dfedadb90916040518263ffffffff1660e01b81526004016119119190612cdb565b60206040518083038186803b15801561192957600080fd5b505af415801561193d573d6000803e3d6000fd5b505050506040513d601f19601f82011682018060405250611961919081019061236f565b905090565b6000600573__TokenizedDerivativeUtils______________632bf6109490916040518263ffffffff1660e01b81526004016119a29190612cdb565b60206040518083038186803b1580156119ba57600080fd5b505af41580156119ce573d6000803e3d6000fd5b505050506040513d601f19601f820116820180604052506119f29190810190612346565b905090565b600073ffffffffffffffffffffffffffffffffffffffff168373ffffffffffffffffffffffffffffffffffffffff161415611a67576040517f08c379a0000000000000000000000000000000000000000000000000000000008152600401611a5e90612bd5565b60405180910390fd5b600073ffffffffffffffffffffffffffffffffffffffff168273ffffffffffffffffffffffffffffffffffffffff161415611ad7576040517f08c379a0000000000000000000000000000000000000000000000000000000008152600401611ace90612b35565b60405180910390fd5b80600160008573ffffffffffffffffffffffffffffffffffffffff1673ffffffffffffffffffffffffffffffffffffffff16815260200190815260200160002060008473ffffffffffffffffffffffffffffffffffffffff1673ffffffffffffffffffffffffffffffffffffffff168152602001908152602001600020819055508173ffffffffffffffffffffffffffffffffffffffff168373ffffffffffffffffffffffffffffffffffffffff167f8c5be1e5ebec7d5bd14f71427d1e84f3dd0314c0f7b2291e5b200ac8c7c3b92583604051611bb59190612db6565b60405180910390a3505050565b600073ffffffffffffffffffffffffffffffffffffffff168373ffffffffffffffffffffffffffffffffffffffff161415611c32576040517f08c379a0000000000000000000000000000000000000000000000000000000008152600401611c2990612bb5565b60405180910390fd5b600073ffffffffffffffffffffffffffffffffffffffff168273ffffffffffffffffffffffffffffffffffffffff161415611ca2576040517f08c379a0000000000000000000000000000000000000000000000000000000008152600401611c9990612b15565b60405180910390fd5b611cf3816000808673ffffffffffffffffffffffffffffffffffffffff1673ffffffffffffffffffffffffffffffffffffffff16815260200190815260200160002054611e3290919063ffffffff16565b6000808573ffffffffffffffffffffffffffffffffffffffff1673ffffffffffffffffffffffffffffffffffffffff16815260200190815260200160002081905550611d86816000808573ffffffffffffffffffffffffffffffffffffffff1673ffffffffffffffffffffffffffffffffffffffff16815260200190815260200160002054611e8890919063ffffffff16565b6000808473ffffffffffffffffffffffffffffffffffffffff1673ffffffffffffffffffffffffffffffffffffffff168152602001908152602001600020819055508173ffffffffffffffffffffffffffffffffffffffff168373ffffffffffffffffffffffffffffffffffffffff167fddf252ad1be2c89b69c2b068fc378daa952ba7f163c4a11628f55a4df523b3ef83604051611e259190612db6565b60405180910390a3505050565b600082821115611e77576040517f08c379a0000000000000000000000000000000000000000000000000000000008152600401611e6e90612b75565b60405180910390fd5b600082840390508091505092915050565b600080828401905083811015611ed3576040517f08c379a0000000000000000000000000000000000000000000000000000000008152600401611eca90612b55565b60405180910390fd5b8091505092915050565b600073ffffffffffffffffffffffffffffffffffffffff168273ffffffffffffffffffffffffffffffffffffffff161415611f4d576040517f08c379a0000000000000000000000000000000000000000000000000000000008152600401611f4490612bf5565b60405180910390fd5b611f6281600254611e8890919063ffffffff16565b600281905550611fb9816000808573ffffffffffffffffffffffffffffffffffffffff1673ffffffffffffffffffffffffffffffffffffffff16815260200190815260200160002054611e8890919063ffffffff16565b6000808473ffffffffffffffffffffffffffffffffffffffff1673ffffffffffffffffffffffffffffffffffffffff168152602001908152602001600020819055508173ffffffffffffffffffffffffffffffffffffffff16600073ffffffffffffffffffffffffffffffffffffffff167fddf252ad1be2c89b69c2b068fc378daa952ba7f163c4a11628f55a4df523b3ef836040516120599190612db6565b60405180910390a35050565b600073ffffffffffffffffffffffffffffffffffffffff168273ffffffffffffffffffffffffffffffffffffffff1614156120d5576040517f08c379a00000000000000000000000000000000000000000000000000000000081526004016120cc90612b95565b60405180910390fd5b6120ea81600254611e3290919063ffffffff16565b600281905550612141816000808573ffffffffffffffffffffffffffffffffffffffff1673ffffffffffffffffffffffffffffffffffffffff16815260200190815260200160002054611e3290919063ffffffff16565b6000808473ffffffffffffffffffffffffffffffffffffffff1673ffffffffffffffffffffffffffffffffffffffff16815260200190815260200160002081905550600073ffffffffffffffffffffffffffffffffffffffff168273ffffffffffffffffffffffffffffffffffffffff167fddf252ad1be2c89b69c2b068fc378daa952ba7f163c4a11628f55a4df523b3ef836040516121e19190612db6565b60405180910390a35050565b6000813590506121fc81612fde565b92915050565b60008151905061221181612ff5565b92915050565b6000815190506122268161300c565b92915050565b60008135905061223b81613023565b92915050565b60008151905061225081613023565b92915050565b60006020828403121561226857600080fd5b6000612276848285016121ed565b91505092915050565b6000806040838503121561229257600080fd5b60006122a0858286016121ed565b92505060206122b1858286016121ed565b9150509250929050565b6000806000606084860312156122d057600080fd5b60006122de868287016121ed565b93505060206122ef868287016121ed565b92505060406123008682870161222c565b9150509250925092565b6000806040838503121561231d57600080fd5b600061232b858286016121ed565b925050602061233c8582860161222c565b9150509250929050565b60006020828403121561235857600080fd5b600061236684828501612202565b91505092915050565b60006020828403121561238157600080fd5b600061238f84828501612217565b91505092915050565b600080604083850312156123ab57600080fd5b60006123b985828601612217565b92505060206123ca85828601612241565b9150509250929050565b6000602082840312156123e657600080fd5b60006123f48482850161222c565b91505092915050565b6000806040838503121561241057600080fd5b600061241e8582860161222c565b925050602061242f8582860161222c565b9150509250929050565b61244281612e19565b82525050565b61245181612e19565b82525050565b61246081612e2b565b82525050565b61246f81612e37565b82525050565b61247e81612ea8565b82525050565b61248d81612ecc565b82525050565b61249c81612ef0565b82525050565b6124ab81612f14565b82525050565b6124ba81612f38565b82525050565b6124c981612f5c565b82525050565b6124d881612f6e565b82525050565b6124e781612e67565b82525050565b6124f681612e67565b82525050565b600061250782612dec565b6125118185612df7565b9350612521818560208601612f80565b61252a81612fb3565b840191505092915050565b600061254082612dec565b61254a8185612e08565b935061255a818560208601612f80565b61256381612fb3565b840191505092915050565b600061257b602383612e08565b91507f45524332303a207472616e7366657220746f20746865207a65726f206164647260008301527f65737300000000000000000000000000000000000000000000000000000000006020830152604082019050919050565b60006125e1602283612e08565b91507f45524332303a20617070726f766520746f20746865207a65726f20616464726560008301527f73730000000000000000000000000000000000000000000000000000000000006020830152604082019050919050565b6000612647601b83612e08565b91507f536166654d6174683a206164646974696f6e206f766572666c6f7700000000006000830152602082019050919050565b6000612687601e83612e08565b91507f536166654d6174683a207375627472616374696f6e206f766572666c6f7700006000830152602082019050919050565b60006126c7602183612e08565b91507f45524332303a206275726e2066726f6d20746865207a65726f2061646472657360008301527f73000000000000000000000000000000000000000000000000000000000000006020830152604082019050919050565b600061272d602583612e08565b91507f45524332303a207472616e736665722066726f6d20746865207a65726f20616460008301527f64726573730000000000000000000000000000000000000000000000000000006020830152604082019050919050565b6000612793602483612e08565b91507f45524332303a20617070726f76652066726f6d20746865207a65726f2061646460008301527f72657373000000000000000000000000000000000000000000000000000000006020830152604082019050919050565b60006127f9601f83612e08565b91507f45524332303a206d696e7420746f20746865207a65726f2061646472657373006000830152602082019050919050565b60408201600082015161284260008501826124de565b5060208201516128556020850182612a3d565b50505050565b60c0820160008201516128716000850182612439565b5060208201516128846020850182612439565b5060408201516128976040850182612475565b5060608201516128aa6060850182612493565b5060808201516128bd60808501826124a2565b5060a08201516128d060a0850182612484565b50505050565b6000610160830160008301516128ef6000860182612a3d565b5060208301516129026020860182612a3d565b5060408301516129156040860182612a3d565b5060608301516129286060860182612a3d565b50608083015161293b6080860182612a3d565b5060a083015161294e60a0860182612466565b5060c083015161296160c08601826124c0565b5060e083015161297460e0860182612a3d565b50610100830151612989610100860182612a3d565b506101208301518482036101208601526129a382826124fc565b9150506101408301516129ba610140860182612a3d565b508091505092915050565b8082525050565b6060820160008201516129e260008501826124de565b5060208201516129f560208501826124de565b506040820151612a086040850182612a3d565b50505050565b604082016000820151612a246000850182612a3d565b506020820151612a376020850182612a3d565b50505050565b612a4681612e91565b82525050565b612a5581612e91565b82525050565b612a6481612e91565b82525050565b612a7381612e9b565b82525050565b6000602082019050612a8e6000830184612457565b92915050565b6000602082019050612aa960008301846124b1565b92915050565b6000602082019050612ac460008301846124ed565b92915050565b6000604082019050612adf60008301856124ed565b612aec6020830184612a4c565b9392505050565b60006020820190508181036000830152612b0d8184612535565b905092915050565b60006020820190508181036000830152612b2e8161256e565b9050919050565b60006020820190508181036000830152612b4e816125d4565b9050919050565b60006020820190508181036000830152612b6e8161263a565b9050919050565b60006020820190508181036000830152612b8e8161267a565b9050919050565b60006020820190508181036000830152612bae816126ba565b9050919050565b60006020820190508181036000830152612bce81612720565b9050919050565b60006020820190508181036000830152612bee81612786565b9050919050565b60006020820190508181036000830152612c0e816127ec565b9050919050565b60006102e0820190508181036000830152612c30818f6128d6565b9050612c3f602083018e61285b565b612c4c60e083018d6124ed565b612c5a61010083018c6124ed565b612c6861012083018b6124cf565b612c7661014083018a612a4c565b612c846101608301896129cc565b612c926101c08301886129cc565b612ca06102208301876124ed565b612cae61024083018661282c565b612cbc6102808301856124ed565b612cca6102a0830184612a0e565b9d9c50505050505050505050505050565b6000602082019050612cf060008301846129c5565b92915050565b6000604082019050612d0b60008301856129c5565b612d186020830184612448565b9392505050565b6000606082019050612d3460008301866129c5565b612d416020830185612448565b612d4e6040830184612a5b565b949350505050565b6000604082019050612d6b60008301856129c5565b612d786020830184612a5b565b9392505050565b6000606082019050612d9460008301866129c5565b612da16020830185612a5b565b612dae6040830184612a5b565b949350505050565b6000602082019050612dcb6000830184612a4c565b92915050565b6000602082019050612de66000830184612a6a565b92915050565b600081519050919050565b600082825260208201905092915050565b600082825260208201905092915050565b6000612e2482612e71565b9050919050565b60008115159050919050565b6000819050919050565b6000819050612e4f82612fc4565b919050565b6000819050612e6282612fd1565b919050565b6000819050919050565b600073ffffffffffffffffffffffffffffffffffffffff82169050919050565b6000819050919050565b600060ff82169050919050565b6000612eb382612eba565b9050919050565b6000612ec582612e71565b9050919050565b6000612ed782612ede565b9050919050565b6000612ee982612e71565b9050919050565b6000612efb82612f02565b9050919050565b6000612f0d82612e71565b9050919050565b6000612f1f82612f26565b9050919050565b6000612f3182612e71565b9050919050565b6000612f4382612f4a565b9050919050565b6000612f5582612e71565b9050919050565b6000612f6782612e41565b9050919050565b6000612f7982612e54565b9050919050565b60005b83811015612f9e578082015181840152602081019050612f83565b83811115612fad576000848401525b50505050565b6000601f19601f8301169050919050565b60028110612fce57fe5b50565b60068110612fdb57fe5b50565b612fe781612e19565b8114612ff257600080fd5b50565b612ffe81612e2b565b811461300957600080fd5b50565b61301581612e67565b811461302057600080fd5b50565b61302c81612e91565b811461303757600080fd5b5056fea265627a7a723058204782045e73631a6d24b2f9b569427bb0ea5896e364a5fc98e0b9c906b2a120db6c6578706572696d656e74616cf50037a265627a7a72305820128f2a70126f3dcf072ca3e6b6da906063ac96383a2cb598c09ee6b2c2f416466c6578706572696d656e74616cf50037",
  "source": "pragma solidity ^0.5.0;\n\npragma experimental ABIEncoderV2;\n\nimport \"./AddressWhitelist.sol\";\nimport \"./ContractCreator.sol\";\nimport \"./TokenizedDerivative.sol\";\nimport \"./Testable.sol\";\n\n\n/**\n * @title Contract creator for TokenizedDerivative.\n */\ncontract TokenizedDerivativeCreator is ContractCreator, Testable {\n    struct Params {\n        address priceFeedAddress;\n        uint defaultPenalty; // Percentage of mergin requirement * 10^18\n        uint supportedMove; // Expected percentage move in the underlying that the long is protected against.\n        bytes32 product;\n        uint fixedYearlyFee; // Percentage of nav * 10^18\n        uint disputeDeposit; // Percentage of mergin requirement * 10^18\n        address returnCalculator;\n        uint startingTokenPrice;\n        uint expiry;\n        address marginCurrency;\n        uint withdrawLimit; // Percentage of shortBalance * 10^18\n        TokenizedDerivativeParams.ReturnType returnType;\n        uint startingUnderlyingPrice;\n        string name;\n        string symbol;\n        uint256 strikePrice;\n    }\n\n    AddressWhitelist public returnCalculatorWhitelist;\n    AddressWhitelist public marginCurrencyWhitelist;\n\n    constructor(\n        address _finderAddress,\n        address _returnCalculatorWhitelist,\n        address _marginCurrencyWhitelist,\n        bool _isTest\n    ) public ContractCreator(_finderAddress) Testable(_isTest) {\n        returnCalculatorWhitelist = AddressWhitelist(_returnCalculatorWhitelist);\n        marginCurrencyWhitelist = AddressWhitelist(_marginCurrencyWhitelist);\n    }\n\n    /**\n     * @notice Creates a new instance of `TokenizedDerivative` with the provided `params`.\n     */\n    function createTokenizedDerivative(Params memory params)\n        public\n        returns (address derivativeAddress)\n    {\n        TokenizedDerivative derivative = new TokenizedDerivative(_convertParams(params), params.name, params.symbol);\n\n        address[] memory parties = new address[](1);\n        parties[0] = msg.sender;\n\n        _registerContract(parties, address(derivative));\n\n        emit CreatedTokenizedDerivative(address(derivative));\n\n        return address(derivative);\n    }\n\n    // Converts createTokenizedDerivative params to TokenizedDerivative constructor params.\n    function _convertParams(Params memory params)\n        private\n        view\n        returns (TokenizedDerivativeParams.ConstructorParams memory constructorParams)\n    {\n        // Copy and verify externally provided variables.\n        constructorParams.sponsor = msg.sender;\n\n        require(returnCalculatorWhitelist.isOnWhitelist(params.returnCalculator));\n        constructorParams.returnCalculator = params.returnCalculator;\n\n        require(marginCurrencyWhitelist.isOnWhitelist(params.marginCurrency));\n        constructorParams.marginCurrency = params.marginCurrency;\n\n        constructorParams.priceFeedAddress = params.priceFeedAddress;\n        constructorParams.defaultPenalty = params.defaultPenalty;\n        constructorParams.supportedMove = params.supportedMove;\n        constructorParams.product = params.product;\n        constructorParams.fixedYearlyFee = params.fixedYearlyFee;\n        constructorParams.disputeDeposit = params.disputeDeposit;\n        constructorParams.startingTokenPrice = params.startingTokenPrice;\n        constructorParams.expiry = params.expiry;\n        constructorParams.withdrawLimit = params.withdrawLimit;\n        constructorParams.returnType = params.returnType;\n        constructorParams.startingUnderlyingPrice = params.startingUnderlyingPrice;\n    \n        // copy strike price\n        constructorParams.strikePrice = params.strikePrice;\n\n        // Copy internal variables.\n        constructorParams.finderAddress = finderAddress;\n        constructorParams.creationTime = getCurrentTime();\n    }\n\n    event CreatedTokenizedDerivative(address contractAddress);\n}\n",
  "sourcePath": "/home/solidity/Code/RTradeLtd/ethwaterloo2019/protocol/core/contracts/TokenizedDerivativeCreator.sol",
  "compiler": {
    "name": "solc",
    "version": "0.5.8+commit.23d335f2.Emscripten.clang"
  },
  "schemaVersion": "3.0.18",
  "updatedAt": "2019-11-10T07:35:35.755Z",
  "devdoc": {
    "methods": {
      "setCurrentTime(uint256)": {
        "details": "Will revert if not running in test mode."
      }
    },
    "title": "Contract creator for TokenizedDerivative."
  },
  "userdoc": {
    "methods": {
      "createTokenizedDerivative((address,uint256,uint256,bytes32,uint256,uint256,address,uint256,uint256,address,uint256,uint8,uint256,string,string,uint256))": {
        "notice": "Creates a new instance of `TokenizedDerivative` with the provided `params`."
      },
      "getCurrentTime()": {
        "notice": "Gets the current time. Will return the last time set in `setCurrentTime` if running in test mode. Otherwise, it will return the block timestamp."
      },
      "setCurrentTime(uint256)": {
        "notice": "Sets the current time."
      }
    }
  }
}